:020000040800F2
:1000000068060020290200085B100008FB0A0008AF
:1000100057100008E1020008D9170008000000008E
:10002000000000000000000000000000C1130008F4
:100030006B09000800000000E1110008D31400085B
:10004000430200084302000843020008430200087C
:10005000430200084302000843020008430200086C
:10006000430200084302000843020008430200085C
:10007000430200084302000843020008430200084C
:10008000430200084302000843020008430200083C
:10009000E5020008E70200084302000843020008E6
:1000A000430200084302000843020008430200081C
:1000B000AD1500084302000843020008430200088F
:1000C00043020008430200084302000843020008FC
:1000D00043020008430200084302000843020008EC
:1000E00043020008430200084302000843020008DC
:1000F00043020008430200084302000843020008CC
:1001000043020008430200084302000843020008BB
:1001100043020008430200084302000843020008AB
:10012000430200084302000843020008430200089B
:10013000430200084302000843020008430200088B
:10014000E90200081D0300084302000843020008FA
:10015000430200084302000843020008430200086B
:10016000430200084302000843020008430200085B
:10017000430200084302000843020008430200084B
:10018000430200084302000800F002F800F03CF8C7
:100190000AA090E8000C82448344AAF10107DA45E2
:1001A00001D100F031F8AFF2090EBAE80F0013F0F8
:1001B000010F18BFFB1A43F001031847781600001F
:1001C00098160000103A24BF78C878C1FAD85207B0
:1001D00024BF30C830C144BF04680C6070470000C1
:1001E0000023002400250026103A28BF78C1FBD840
:1001F000520728BF30C148BF0B6070471FB501F0E0
:1002000014FB1FBD10B510BD00F032F81146FFF70A
:10021000F5FF01F0F0FA00F050F803B4FFF7F2FF39
:1002200003BC00F057F80000094880470948004720
:10023000FEE7FEE7FEE7FEE7FEE7FEE7FEE7FEE796
:10024000FEE7FEE704480549054A064B70470000F3
:100250004515000889010008680000206806002094
:10026000680200206802002070477047704770479E
:10027000754600F02BF8AE4605006946534620F05F
:100280000700854618B020B5FFF7DCFFBDE8204029
:100290004FF000064FF000074FF000084FF0000B42
:1002A00021F00701AC46ACE8C009ACE8C009ACE8F5
:1002B000C009ACE8C0098D46704710B50446AFF3DD
:1002C00000802046BDE81040FFF7A7BF00487047F8
:1002D0000400002001491820ABBEFEE72600020002
:1002E00000BFFEE77047704700B585B002210A489D
:1002F00000F004F950B16A460021074800F021FAE5
:100300000098012801D100F0CFFB00BF1021024866
:1003100000F01CF805B000BD0068004000B585B0D5
:100320001021094800F0EAF838B16A460121064870
:1003300000F007FA00F0B8FB00BF1021024800F0FF
:1003400005F805B000BD000000680040B1F5007F71
:100350003AD00FDC202928D006DC01291CD0042942
:100360001DD0082940D11DE0402921D0B1F5807F62
:100370003AD126E0B1F5004F31D006DCB1F5806FFF
:1003800025D0B1F5006F2FD124E0B1F5803F12D018
:10039000B1F5003F28D111E0154A826025E008221E
:1003A000C26022E01022C2601FE0082202611CE04D
:1003B0001022026119E00822426016E01022426019
:1003C00013E00422426010E0042242600DE00422A7
:1003D00042600AE0002282610422426005E00022BD
:1003E00082610422426000E000BF00BF704700004D
:1003F0000101010010B50021837A012202FA03F104
:100400003D4A126842F001023B4B1A603A4A1C32E4
:1004100012688A43384B1C331A60027BCAB9364AC9
:100420000C3212688A43344B0C331A604288C388FA
:1004300042EA0343304A4032847A42F83430028838
:10044000838842EA03432C4A4032847A02EBC40296
:100450005360027B012A19D1274A0C3212680A43E1
:10046000254B0C331A604288038842EA0343224A30
:100470004032847A42F83430C288838842EA0343A7
:100480001D4A4032847A02EBC4025360C27A3AB900
:10049000194A121D12688A43174B1B1D1A6006E089
:1004A000154A121D12680A43134B1B1D1A6002895C
:1004B00032B9114A143212688A430F4B14331A604E
:1004C0000289012A06D10C4A143212680A430A4BE7
:1004D00014331A60427B012A06D1074A1C32126883
:1004E0000A43054B1C331A60034A126822F00102CA
:1004F000014B1A6010BD00000066004070B5044654
:100500000D46002660692840002871D0B5F5807F2F
:100510005CD010DC082D35D006DC012D20D0022D5A
:1005200024D0042D72D127E0102D31D0202D35D0CC
:10053000402D6BD138E0B5F5004F60D009DCB5F542
:10054000007F49D0B5F5806F4CD0B5F5006F5DD117
:100550004FE0B5F5803F2DD0B5F5003F56D12FE0E7
:10056000A0682D4900F0F8F9064651E0E068032143
:1005700000F0F2F906464BE0E068082100F0ECF9E3
:10058000064645E0E068102100F0E6F906463FE047
:100590002069032100F0E0F9064639E020690821CE
:1005A00000F0DAF9064633E02069102100F0D4F9B2
:1005B00006462DE06068082100F0CEF9064627E0E7
:1005C0006068102100F0C8F9064621E0A069012109
:1005D00000F0C2F906461BE0A069022100F0BCF958
:1005E000064615E0A069042100F0B6F906460FE0C2
:1005F0000FE0A069702100F0AFF9064608E06068DE
:10060000042100F0A9F9064602E0FFE7002600BF3A
:1006100000E00026304670BD010101001AB14369B7
:100620000B43436102E043698B434361704730B53C
:10063000024600200023146824F0020414601468A9
:1006400044F00104146000E05B1C546804F00104F1
:100650001CB94FF6FF74A342F6D1546804F00104AC
:100660000CB900206CE08C79012C04D1146844F0A2
:100670008004146003E0146824F080041460CC79D2
:10068000012C04D1146844F04004146003E01468A1
:1006900024F0400414600C7A012C04D1146844F056
:1006A0002004146003E0146824F0200414604C7AE1
:1006B000012C04D1146844F01004146003E01468A1
:1006C00024F0100414608C7A012C04D1146844F0D6
:1006D0000804146003E0146824F008041460CC7A61
:1006E000012C04D1146844F00404146003E014687D
:1006F00024F0040414608C78A407CD7844EA0564DF
:100700000D7944EA05444D7944EA05540D886D1E7F
:100710002C43D461146824F001041460002300E029
:100720005B1C546804F001041CB14FF6FF74A34233
:10073000F6D1546804F001040CB1002000E001205F
:1007400030BD10B500F5D87303EB01131B6803F03F
:1007500004031372137A53B900F5D87303EB011332
:100760001B6840F2FF7404EA5353136009E000F57C
:10077000D87303EB01131B686FF0604404EAD303E2
:10078000536000F5D87303EB01131B6803F00203F9
:10079000537200F5D87303EB01135B6803F00F038A
:1007A000937200F5D87303EB01135B681B0AD374D3
:1007B00000F5D87303EB01139B68D37200F5D8736F
:1007C00003EB01139B681C0A147300F5D87303EB49
:1007D00001139B681C0C547300F5D87303EB0113D1
:1007E0009B681B0E937300F5D87303EB0113DB6852
:1007F000D37300F5D87303EB0113DB681C0A147480
:1008000000F5D87303EB0113DB681C0C547400F57E
:10081000D87303EB0113DB681B0E937421B9C36813
:1008200043F02003C36003E0036943F02003036146
:1008300010BD10B502460020936803F08063B3F149
:10084000806F00D110E0936803F00063B3F1006F94
:1008500001D1012008E0936803F08053B3F1805F79
:1008600001D1022000E00420042874D002F5C073F6
:1008700003EB00131B6803F0010402F5C07303EBE4
:1008800000131C600B7A7BB94B7A0C8843EA445303
:1008900002F5C07404EB00142468234302F5C0740D
:1008A00004EB0014236010E00B7A4C6843EAC403A5
:1008B0004C7A234302F5C07404EB001424682343EC
:1008C00002F5C07404EB001423608B7A03F00F036D
:1008D0008B7202F5C07303EB00135B6823F00F0407
:1008E00002F5C07303EB00135C6002F5C07303EB09
:1008F00000135B688C7A234302F5C07404EB001488
:1009000063608B7B1C064B7B44EA03440B7B44EA0D
:100910000323CC7A234302F5C07404EB0014A360D4
:100920008B7C1C064B7C44EA03440B7C44EA032387
:10093000CC7B234302F5C07404EB0014E36002F5A2
:10094000C07303EB00131B6843F0010402F5C0738E
:1009500003EB00131C6010BD0246002002EA0103F5
:100960000BB1012000E0002070477047002006E036
:10097000002100E0491CB1F5FA6FFBDB401C41F29D
:1009800088329042F4DB704730B10749096841F47E
:100990008071054A116005E00349096821F48071FE
:1009A000014A116070470000003C0240014A10708B
:1009B00070470000003C0240F0B50A4600210023C9
:1009C000002400BF3DE0012505FA01F3156805EAA2
:1009D00003049C4234D105684F000326BE40B54352
:1009E000056015794E00B5400668354305601579F8
:1009F000012D02D01579022D16D185684F000326EE
:100A0000BE40B543856055794E00B5408668354394
:100A10008560456801268E40B543456045689679F6
:100A20008E40B6B235434560C5684F000326BE40D0
:100A3000B543C560D5794E00B540C6683543C5603D
:100A4000491C1029BFD3F0BDF0B5002300244D0789
:100A5000ED0E02FA05F3CE1000F1200555F82650F0
:100A60004E07F70E0F26BE40B543CF1000F120060B
:100A700046F82750CE1000F1200555F8265045EADB
:100A80000304CE1000F1200545F82640F0BD0246D3
:100A9000002013690B400BB1012000E000207047DB
:100AA000418370470183704700B585B09DF80B0006
:100AB00005281DD2DFE800F0030C11161B009DF87D
:100AC0000F209DF80D109DF80C0000F0F1FC10E0D7
:100AD0000121322000F06CFB0BE00721332000F0F5
:100AE00067FB06E00421542000F062FB01E000E017
:100AF00000BF00BF012005B000BD00BFFEE7000041
:100B000010B540210A48FFF7CBFF80210848FFF7C6
:100B1000C7FF022000F062FE40210548FFF7C2FF38
:100B2000022000F05BFE40210148FFF7B9FF10BD35
:100B30000004024010B540210A48FFF7B1FF8021B0
:100B40000848FFF7AFFF022000F048FE40210548AB
:100B5000FFF7A8FF022000F041FE40210148FFF707
:100B60009FFF10BD0004024070B50546002400261A
:100B700018E040211048FFF793FF022000F02EFEFE
:100B800040210D48FFF78EFF6006040E80210A48C1
:100B9000FFF77DFF08B1601CC4B2012000F01EFE0B
:100BA000701CC6B2082EE4DB15B9FFF7C3FF01E0E5
:100BB000FFF7A6FF204670BD0004024070B5044652
:100BC00040211448FFF76CFF00251FE0E00920B129
:100BD00080211048FFF766FF03E080210D48FFF7F2
:100BE0005FFF6006040E022000F0F8FD4021094876
:100BF000FFF758FF022000F0F1FD40210548FFF704
:100C00004FFF022000F0EAFD681CC5B2082DDDDBB5
:100C100070BD00000004024010B580210A48FFF7B3
:100C200041FF40210848FFF73DFF042000F0D6FDBA
:100C300080210548FFF734FF042000F0CFFD40215C
:100C40000148FFF72DFF10BD0004024010B5402100
:100C50000A48FFF725FF80210848FFF721FF0420FD
:100C600000F0BCFD40210548FFF71CFF8021034830
:100C7000FFF718FF042000F0B1FD10BD0004024092
:100C800010B5002480211148FFF70CFF012000F06F
:100C9000A5FD40210D48FFF705FF012000F09EFD56
:100CA00007E0601CC4B2FA2C03DDFFF7CFFF012080
:100CB00010BD80210548FFF7EAFE0028F1D1402150
:100CC0000248FFF7EDFE0020F2E7000000040240BA
:100CD0001FB500208DF80A008DF80B0001208DF85B
:100CE0000C000020ADF80000ADF80200ADF80400E3
:100CF000ADF80600ADF8080001208DF80D0068463B
:100D0000FFF778FB1FBD00000EB50320ADF8000013
:100D100000208DF802008DF8030007208DF80400F4
:100D200004208DF8050000208DF806008DF80700DE
:100D30008DF808008DF809008DF80A008DF80B0079
:100D400069460348FFF773FCFFF7C2FF0EBD0000C2
:100D5000006400401FB50E208DF80A0000208DF8B9
:100D60000B0001208DF80C000020ADF80000ADF85C
:100D70000200ADF80400ADF80600ADF8080001204F
:100D80008DF80D006846FFF735FB1FBD0EB503203B
:100D9000ADF8000000208DF802008DF80300072058
:100DA0008DF8040004208DF8050000208DF8060061
:100DB0008DF807008DF808008DF809008DF80A00FD
:100DC00001208DF80B0069460248FFF730FCFFF761
:100DD000C1FF0EBD006800400EB50121084600F0BD
:100DE00001FA0121022000F0FDF90121042000F0A8
:100DF000F9F90121880600F005FA0121480600F002
:100E000001FA0121080300F00DFAF0200190022000
:100E10008DF8080000208DF80A0001208DF80B00E5
:100E200003208DF8090001A95E48FFF7C5FD0522E2
:100E300004215C48FFF708FE052211465948FFF7D8
:100E400003FE052206215748FFF7FEFD0522072174
:100E50005448FFF7F9FD0C20019000208DF80800A0
:100E60008DF80B0001A94F48FFF7A6FD1020019057
:100E700000208DF808008DF80B0001A94A48FFF703
:100E80009BFD4FF4F070019001208DF808000020C8
:100E90008DF80A008DF80B008DF8090001A9424871
:100EA000FFF78AFD0120019000208DF808008DF8E1
:100EB0000B0001A93D48FFF77FFD4FF480700190C2
:100EC00001208DF8080000208DF80A0001208DF81F
:100ED0000B0003208DF8090001A93448FFF76CFDD1
:100EE0004FF40070019001208DF8080000208DF86B
:100EF0000A008DF80B0003208DF8090001A92B488A
:100F0000FFF75AFD4FF40050019002208DF80800C1
:100F100000208DF80A0001208DF80B0003208DF8C9
:100F2000090001A92148FFF747FD20200190022078
:100F30008DF8080000208DF80A0001208DF80B00C4
:100F400003208DF8090001A91848FFF735FD092293
:100F50000D211648FFF778FD092205211348FFF7F8
:100F600073FD012202211248FFF758FB40208DF843
:100F7000000001208DF801008DF802008DF80300BB
:100F8000684600F06BF840210748FFF789FD2021F3
:100F90000548FFF787FD4FF4C0710348FFF782FD56
:100FA0000EBD0000000002400008024000040240A4
:100FB000006800401CB50121022000F013F9C02098
:100FC000009001208DF804008DF8060003208DF8B4
:100FD000050001208DF8070069460648FFF7ECFC84
:100FE00080210448FFF75EFD40210248FFF75AFDCB
:100FF0001CBD0000000402401FB50121084600F09E
:1010000001F940F2A310029040F2F310ADF8040091
:101010000020ADF80600ADF80C0001A94FF08040AB
:1010200000F058FB01221146900700F049FB1C20FC
:101030008DF8000001208DF8010003208DF80200DA
:1010400001208DF80300684600F008F801218807A8
:1010500000F019FB1FBD00BFFEE7704770B500210F
:1010600000230F22C4781CB3174C246804F4E064F6
:10107000C4F5E064C4F30721C1F10404E3B20A41FA
:1010800044789C40E1B28478144021430C07210E3F
:101090000E4C05786155047804F01F050124AC401E
:1010A00005786D11AD0005F1E025C5F8004109E0B6
:1010B000047804F01F050124AC40054D0678761134
:1010C00045F8264070BD00000CED00E000E400E0B3
:1010D00080E100E070B50A21552000F069F8282170
:1010E000562000F065F82821572000F061F8012112
:1010F000322000F05DF80021542000F059F807215B
:10110000332000F055F80121342000F051F800217F
:10111000A02000F04DF8562000F013F805465720A7
:1011200000F00FF80646372000F00BF8044604F0F4
:101130000200012803D101219B2000F039F8012091
:1011400070BD70B50446FFF767FD5020FFF736FD10
:10115000FFF796FD2046FFF731FDFFF791FDFFF702
:101160005BFD5120FFF72AFDFFF78AFD0020FFF706
:10117000FBFC0546FFF76AFD284670BD2DE9F041EE
:1011800007460C46002600250DE04FF6FF7000EAEA
:1011900006263919491B491EC8B2FFF7D2FF304451
:1011A00086B2681CC5B2A542EFDB3046BDE8F081CF
:1011B00070B505460C46FFF72FFD5020FFF7FEFCEB
:1011C000FFF75EFD2846FFF7F9FCFFF759FD2046C3
:1011D000FFF7F4FCFFF754FDFFF738FD012070BD69
:1011E0007047000029B1064A12680243044B1A6096
:1011F00004E0034A12688243014B1A607047000002
:101200003038024029B1064A12680243044B1A6082
:1012100004E0034A12688243014B1A6070470000E1
:101220004038024029B1064A12680243044B1A6052
:1012300004E0034A12688243014B1A6070470000C1
:10124000443802401448006840F001001249086028
:1012500000201149083108600F4800680F49084014
:101260000D4908600E48091D08600E480A4984317E
:1012700008600B481038091D08600748006820F412
:10128000802005490860002003490C3108600249AC
:101290008C3108607047000000380240FFFFF6EA1A
:1012A000103000240030002010B501460022002339
:1012B00000204A11012A02D10A4C236808E0022AC0
:1012C00003D1084C7034236802E0064C7434236860
:1012D00001F01F02012494401C400CB1012000E0E9
:1012E000002010BD0038024001460020034A10686B
:1012F00020F0F000084310607047000008380240FA
:101300000021024A117011460870704702380240ED
:1013100001460020034A106820F4E05008431060A2
:10132000704700000838024001460020034A106858
:1013300020F4604040EAC100106070470838024065
:1013400001490866704700000000474270B5049CE0
:1013500041EA82150126C6EB530645EA06450543D8
:1013600045EA0465014E356070BD00000438024056
:1013700001460020034A106820F003000843106073
:10138000704700000838024038B500200090002463
:10139000002500BF3120FFF787FF05460098401C5D
:1013A00000900098B0F5A04F01D0002DF2D0312070
:1013B000FFF77AFF08B1012400E00024204638BD81
:1013C000704700000CB50020019000903448006880
:1013D00040F480303249086000BF3148006800F4B2
:1013E000003000900198401C0190009818B90198B5
:1013F000B0F5A04FF1D12A48006800F4003010B1D8
:101400000120009001E0002000900098012846D1C2
:1014100023484030006840F0805021494031086046
:101420002048006840F440401E4908601C480830CD
:1014300000681B49083108600846006840F4004015
:1014400008600846006840F4A05008601648091F6C
:101450000860081F006840F08070091F086000BF26
:101460000F48006800F000700028F9D040F20570C5
:101470000E4908600A480830006820F00300084957
:10148000083108600846006840F00200086000BFAC
:1014900003480830006800F00C000828F8D10CBDA3
:1014A000003802400070004019544007003C0240E0
:1014B00070B504460E46154621465520FFF778FEC6
:1014C00031465620FFF774FE29465720FFF770FE7D
:1014D00070BD70472DE9F84318254FF4A8764FF0FA
:1014E00002080727FFF7AEFE0120FFF709FFFFF70D
:1014F0004BFF0446012C22D10020FFF7F5FE20030C
:10150000FFF712FF4FF4A050FFF702FF0520FFF78F
:101510004DFA0120FFF738FA434632462946A00526
:101520000097FFF713FF0120FFF70AFF00BF3920E4
:10153000FFF7BAFE0028FAD00220FFF719FFBDE836
:10154000F883000010B51548006840F47000134996
:1015500008601348006840F001001149086000204D
:101560000F49083108600E4800680E4908400C49D0
:1015700008600D48091D0860081F006820F48020DD
:10158000091F0860002006490C310860FFF71AFFA8
:101590004FF0006001498039086010BD88ED00E01F
:1015A00000380240FFFFF6FE103000242DE9F04F16
:1015B00085B04FF4FA64651CA61C0121880700F071
:1015C0006EF8012852D102211220FFF7D7FD0746FD
:1015D00002211420FFF7D2FD804602211620FFF7DA
:1015E000CDFD8146254800884B464246394600904D
:1015F000304600F0B1F802211A20FFF7BFFD824605
:1016000002211C20FFF7BAFD834602211E20FFF7AE
:10161000B5FD04901948008800905A465146284666
:10162000049B00F099F802212220FFF7A7FD039008
:1016300002212420FFF7A2FD029002212620FFF7BD
:101640009DFD01900D48008800902046DDE90132A3
:10165000039900F081F809480088401C0749088078
:1016600008460088DF2801DDC020088001218807A6
:1016700000F006F805B0BDE8F08F00000000002083
:10168000CA430282704721B1028842F001020280FF
:1016900004E002884FF6FE731A400280704730B5AE
:1016A0000246002000230024158A05EA01039589DB
:1016B00005EA010413B10CB1012000E0002030BDA7
:1016C0001AB183890B43838102E083898B43838131
:1016D0007047000000220288184B98420ED0184B29
:1016E00098420BD0B0F1804F08D0164B984205D0ED
:1016F000154B984202D0154B984204D14FF68F7388
:101700001A404B881A43124B984207D0114B98420B
:1017100004D04FF6FF431A400B891A4302804B68EE
:10172000C3620B880385054B984202D0044B984254
:1017300001D18B7A03860123838270470000014028
:10174000000401400004004000080040000C00407C
:1017500000100040001400402DE9F04F87B004460F
:101760000D4616461F46DDF840804FF00009CB4677
:1017700001200690A2464FEA096040EA0A2040EAAA
:10178000CB1006990843029004208DF80C0000202D
:101790008DF80D0008208DF80E00E8B28DF80F00CE
:1017A000290A8DF810108DF81160310A8DF8121089
:1017B0008DF81370390A8DF8141000218DF815106A
:1017C0008DF8168001A90348FFF733F807B0BDE88C
:1017D000F08F00000068004000BFFEE7002107E036
:1017E000002201E0531C1AB2A82AFBDB4B1C19B2E1
:1017F0008142F5DB7047FFF76DFEFFF7EDFAFFF76B
:1018000083FAFFF7C3FAFFF7D5FBFFF7AFF8FFF74F
:1018100061FCFFF7ABF8FFF7A9F8FFF7A7F8FFF7B0
:10182000A5F8FFF7E9FB00BFFEE74FF04070E1EEDF
:10183000100A70475418000800000020040000003F
:10184000C4010008581800080400002064060000C5
:08185000E0010008C0000000E7
:040000050800018965
:00000001FF
